{
  "contractName": "Campaign",
  "abi": [
    {
      "inputs": [
        {
          "internalType": "uint256",
          "name": "minimum",
          "type": "uint256"
        },
        {
          "internalType": "address",
          "name": "creator",
          "type": "address"
        }
      ],
      "stateMutability": "nonpayable",
      "type": "constructor"
    },
    {
      "inputs": [
        {
          "internalType": "address",
          "name": "",
          "type": "address"
        }
      ],
      "name": "approvers",
      "outputs": [
        {
          "internalType": "bool",
          "name": "",
          "type": "bool"
        }
      ],
      "stateMutability": "view",
      "type": "function",
      "constant": true
    },
    {
      "inputs": [],
      "name": "approversCount",
      "outputs": [
        {
          "internalType": "uint256",
          "name": "",
          "type": "uint256"
        }
      ],
      "stateMutability": "view",
      "type": "function",
      "constant": true
    },
    {
      "inputs": [],
      "name": "manager",
      "outputs": [
        {
          "internalType": "address",
          "name": "",
          "type": "address"
        }
      ],
      "stateMutability": "view",
      "type": "function",
      "constant": true
    },
    {
      "inputs": [],
      "name": "minimumContribution",
      "outputs": [
        {
          "internalType": "uint256",
          "name": "",
          "type": "uint256"
        }
      ],
      "stateMutability": "view",
      "type": "function",
      "constant": true
    },
    {
      "inputs": [
        {
          "internalType": "uint256",
          "name": "",
          "type": "uint256"
        }
      ],
      "name": "requests",
      "outputs": [
        {
          "internalType": "string",
          "name": "description",
          "type": "string"
        },
        {
          "internalType": "uint256",
          "name": "value",
          "type": "uint256"
        },
        {
          "internalType": "address",
          "name": "recipient",
          "type": "address"
        },
        {
          "internalType": "bool",
          "name": "complete",
          "type": "bool"
        },
        {
          "internalType": "uint256",
          "name": "approvalCount",
          "type": "uint256"
        }
      ],
      "stateMutability": "view",
      "type": "function",
      "constant": true
    },
    {
      "inputs": [],
      "name": "contribute",
      "outputs": [],
      "stateMutability": "payable",
      "type": "function",
      "payable": true
    },
    {
      "inputs": [
        {
          "internalType": "string",
          "name": "description",
          "type": "string"
        },
        {
          "internalType": "uint256",
          "name": "value",
          "type": "uint256"
        },
        {
          "internalType": "address",
          "name": "recipient",
          "type": "address"
        }
      ],
      "name": "createRequest",
      "outputs": [],
      "stateMutability": "nonpayable",
      "type": "function"
    },
    {
      "inputs": [
        {
          "internalType": "uint256",
          "name": "index",
          "type": "uint256"
        }
      ],
      "name": "approveRequest",
      "outputs": [],
      "stateMutability": "nonpayable",
      "type": "function"
    },
    {
      "inputs": [
        {
          "internalType": "uint256",
          "name": "index",
          "type": "uint256"
        }
      ],
      "name": "finalizeRequest",
      "outputs": [],
      "stateMutability": "nonpayable",
      "type": "function"
    },
    {
      "inputs": [],
      "name": "getSummary",
      "outputs": [
        {
          "internalType": "uint256",
          "name": "",
          "type": "uint256"
        },
        {
          "internalType": "uint256",
          "name": "",
          "type": "uint256"
        },
        {
          "internalType": "uint256",
          "name": "",
          "type": "uint256"
        },
        {
          "internalType": "uint256",
          "name": "",
          "type": "uint256"
        },
        {
          "internalType": "address",
          "name": "",
          "type": "address"
        }
      ],
      "stateMutability": "view",
      "type": "function",
      "constant": true
    },
    {
      "inputs": [],
      "name": "getRequestsCount",
      "outputs": [
        {
          "internalType": "uint256",
          "name": "",
          "type": "uint256"
        }
      ],
      "stateMutability": "view",
      "type": "function",
      "constant": true
    }
  ],
  "bytecode": "0x60806040523480156200001157600080fd5b50604051620012483803806200124883398181016040528101906200003791906200012c565b80600160006101000a81548173ffffffffffffffffffffffffffffffffffffffff021916908373ffffffffffffffffffffffffffffffffffffffff16021790555081600281905550505062000173565b600080fd5b6000819050919050565b620000a1816200008c565b8114620000ad57600080fd5b50565b600081519050620000c18162000096565b92915050565b600073ffffffffffffffffffffffffffffffffffffffff82169050919050565b6000620000f482620000c7565b9050919050565b6200010681620000e7565b81146200011257600080fd5b50565b6000815190506200012681620000fb565b92915050565b6000806040838503121562000146576200014562000087565b5b60006200015685828601620000b0565b9250506020620001698582860162000115565b9150509250929050565b6110c580620001836000396000f3fe60806040526004361061009c5760003560e01c806381d12c581161006457806381d12c581461018c57806382fde093146101cd5780638a9cfd55146101f8578063937e09b114610221578063d7bb99ba1461024c578063d7d1bbdb146102565761009c565b806303441006146100a15780630a144391146100ca5780633410452a146101075780634051ddac14610132578063481c6a7514610161575b600080fd5b3480156100ad57600080fd5b506100c860048036038101906100c39190610888565b61027f565b005b3480156100d657600080fd5b506100f160048036038101906100ec9190610913565b6103c8565b6040516100fe919061095b565b60405180910390f35b34801561011357600080fd5b5061011c6103e8565b6040516101299190610985565b60405180910390f35b34801561013e57600080fd5b506101476103f4565b6040516101589594939291906109af565b60405180910390f35b34801561016d57600080fd5b5061017661043d565b6040516101839190610a02565b60405180910390f35b34801561019857600080fd5b506101b360048036038101906101ae9190610888565b610463565b6040516101c4959493929190610aad565b60405180910390f35b3480156101d957600080fd5b506101e261055e565b6040516101ef9190610985565b60405180910390f35b34801561020457600080fd5b5061021f600480360381019061021a9190610c3c565b610564565b005b34801561022d57600080fd5b5061023661066c565b6040516102439190610985565b60405180910390f35b610254610672565b005b34801561026257600080fd5b5061027d60048036038101906102789190610888565b6106f2565b005b600160009054906101000a900473ffffffffffffffffffffffffffffffffffffffff1673ffffffffffffffffffffffffffffffffffffffff163373ffffffffffffffffffffffffffffffffffffffff16146102d957600080fd5b60008082815481106102ee576102ed610cab565b5b90600052602060002090600502019050600260045461030d9190610d38565b81600301541161031c57600080fd5b8060020160149054906101000a900460ff161561033857600080fd5b8060020160009054906101000a900473ffffffffffffffffffffffffffffffffffffffff1673ffffffffffffffffffffffffffffffffffffffff166108fc82600101549081150290604051600060405180830381858888f193505050501580156103a6573d6000803e3d6000fd5b5060018160020160146101000a81548160ff0219169083151502179055505050565b60036020528060005260406000206000915054906101000a900460ff1681565b60008080549050905090565b600080600080600060025447600080549050600454600160009054906101000a900473ffffffffffffffffffffffffffffffffffffffff16945094509450945094509091929394565b600160009054906101000a900473ffffffffffffffffffffffffffffffffffffffff1681565b6000818154811061047357600080fd5b906000526020600020906005020160009150905080600001805461049690610d98565b80601f01602080910402602001604051908101604052809291908181526020018280546104c290610d98565b801561050f5780601f106104e45761010080835404028352916020019161050f565b820191906000526020600020905b8154815290600101906020018083116104f257829003601f168201915b5050505050908060010154908060020160009054906101000a900473ffffffffffffffffffffffffffffffffffffffff16908060020160149054906101000a900460ff16908060030154905085565b60045481565b600160009054906101000a900473ffffffffffffffffffffffffffffffffffffffff1673ffffffffffffffffffffffffffffffffffffffff163373ffffffffffffffffffffffffffffffffffffffff16146105be57600080fd5b6000806001816001815401808255809150500390600052602060002090600502019050838160000190816105f29190610f75565b50828160010181905550818160020160006101000a81548173ffffffffffffffffffffffffffffffffffffffff021916908373ffffffffffffffffffffffffffffffffffffffff16021790555060008160020160146101000a81548160ff0219169083151502179055506000816003018190555050505050565b60025481565b600254341161068057600080fd5b6001600360003373ffffffffffffffffffffffffffffffffffffffff1673ffffffffffffffffffffffffffffffffffffffff16815260200190815260200160002060006101000a81548160ff021916908315150217905550600460008154809291906106eb90611047565b9190505550565b600080828154811061070757610706610cab565b5b90600052602060002090600502019050600360003373ffffffffffffffffffffffffffffffffffffffff1673ffffffffffffffffffffffffffffffffffffffff16815260200190815260200160002060009054906101000a900460ff1661076d57600080fd5b8060040160003373ffffffffffffffffffffffffffffffffffffffff1673ffffffffffffffffffffffffffffffffffffffff16815260200190815260200160002060009054906101000a900460ff16156107c657600080fd5b60018160040160003373ffffffffffffffffffffffffffffffffffffffff1673ffffffffffffffffffffffffffffffffffffffff16815260200190815260200160002060006101000a81548160ff02191690831515021790555080600301600081548092919061083590611047565b91905055505050565b6000604051905090565b600080fd5b600080fd5b6000819050919050565b61086581610852565b811461087057600080fd5b50565b6000813590506108828161085c565b92915050565b60006020828403121561089e5761089d610848565b5b60006108ac84828501610873565b91505092915050565b600073ffffffffffffffffffffffffffffffffffffffff82169050919050565b60006108e0826108b5565b9050919050565b6108f0816108d5565b81146108fb57600080fd5b50565b60008135905061090d816108e7565b92915050565b60006020828403121561092957610928610848565b5b6000610937848285016108fe565b91505092915050565b60008115159050919050565b61095581610940565b82525050565b6000602082019050610970600083018461094c565b92915050565b61097f81610852565b82525050565b600060208201905061099a6000830184610976565b92915050565b6109a9816108d5565b82525050565b600060a0820190506109c46000830188610976565b6109d16020830187610976565b6109de6040830186610976565b6109eb6060830185610976565b6109f860808301846109a0565b9695505050505050565b6000602082019050610a1760008301846109a0565b92915050565b600081519050919050565b600082825260208201905092915050565b60005b83811015610a57578082015181840152602081019050610a3c565b60008484015250505050565b6000601f19601f8301169050919050565b6000610a7f82610a1d565b610a898185610a28565b9350610a99818560208601610a39565b610aa281610a63565b840191505092915050565b600060a0820190508181036000830152610ac78188610a74565b9050610ad66020830187610976565b610ae360408301866109a0565b610af0606083018561094c565b610afd6080830184610976565b9695505050505050565b600080fd5b600080fd5b7f4e487b7100000000000000000000000000000000000000000000000000000000600052604160045260246000fd5b610b4982610a63565b810181811067ffffffffffffffff82111715610b6857610b67610b11565b5b80604052505050565b6000610b7b61083e565b9050610b878282610b40565b919050565b600067ffffffffffffffff821115610ba757610ba6610b11565b5b610bb082610a63565b9050602081019050919050565b82818337600083830152505050565b6000610bdf610bda84610b8c565b610b71565b905082815260208101848484011115610bfb57610bfa610b0c565b5b610c06848285610bbd565b509392505050565b600082601f830112610c2357610c22610b07565b5b8135610c33848260208601610bcc565b91505092915050565b600080600060608486031215610c5557610c54610848565b5b600084013567ffffffffffffffff811115610c7357610c7261084d565b5b610c7f86828701610c0e565b9350506020610c9086828701610873565b9250506040610ca1868287016108fe565b9150509250925092565b7f4e487b7100000000000000000000000000000000000000000000000000000000600052603260045260246000fd5b7f4e487b7100000000000000000000000000000000000000000000000000000000600052601260045260246000fd5b7f4e487b7100000000000000000000000000000000000000000000000000000000600052601160045260246000fd5b6000610d4382610852565b9150610d4e83610852565b925082610d5e57610d5d610cda565b5b828204905092915050565b7f4e487b7100000000000000000000000000000000000000000000000000000000600052602260045260246000fd5b60006002820490506001821680610db057607f821691505b602082108103610dc357610dc2610d69565b5b50919050565b60008190508160005260206000209050919050565b60006020601f8301049050919050565b600082821b905092915050565b600060088302610e2b7fffffffffffffffffffffffffffffffffffffffffffffffffffffffffffffffff82610dee565b610e358683610dee565b95508019841693508086168417925050509392505050565b6000819050919050565b6000610e72610e6d610e6884610852565b610e4d565b610852565b9050919050565b6000819050919050565b610e8c83610e57565b610ea0610e9882610e79565b848454610dfb565b825550505050565b600090565b610eb5610ea8565b610ec0818484610e83565b505050565b5b81811015610ee457610ed9600082610ead565b600181019050610ec6565b5050565b601f821115610f2957610efa81610dc9565b610f0384610dde565b81016020851015610f12578190505b610f26610f1e85610dde565b830182610ec5565b50505b505050565b600082821c905092915050565b6000610f4c60001984600802610f2e565b1980831691505092915050565b6000610f658383610f3b565b9150826002028217905092915050565b610f7e82610a1d565b67ffffffffffffffff811115610f9757610f96610b11565b5b610fa18254610d98565b610fac828285610ee8565b600060209050601f831160018114610fdf5760008415610fcd578287015190505b610fd78582610f59565b86555061103f565b601f198416610fed86610dc9565b60005b8281101561101557848901518255600182019150602085019450602081019050610ff0565b86831015611032578489015161102e601f891682610f3b565b8355505b6001600288020188555050505b505050505050565b600061105282610852565b91507fffffffffffffffffffffffffffffffffffffffffffffffffffffffffffffffff820361108457611083610d09565b5b60018201905091905056fea26469706673582212200be17fca053e7559f0e4d9f933e7be9980b6888bc1a95e8e01d826ff4680b19264736f6c63430008110033",
  "immutableReferences": {},
  "source": "// SPDX-License-Identifier: MIT\n \npragma solidity ^0.8.9;\n \ncontract CampaignFactory {\n    address payable[] public deployedCampaigns;\n \n    function createCampaign(uint minimum) public {\n        address newCampaign = address(new Campaign(minimum, msg.sender));\n        deployedCampaigns.push(payable(newCampaign));\n    }\n \n    function getDeployedCampaigns() public view returns (address payable[] memory) {\n        return deployedCampaigns;\n    }\n}\n \ncontract Campaign {\n    struct Request {\n        string description;\n        uint value;\n        address recipient;\n        bool complete;\n        uint approvalCount;\n        mapping(address => bool) approvals;\n    }\n \n    Request[] public requests;\n    address public manager;\n    uint public minimumContribution;\n    mapping(address => bool) public approvers;\n    uint public approversCount;\n \n    modifier restricted() {\n        require(msg.sender == manager);\n        _;\n    }\n \n    constructor (uint minimum, address creator) {\n        manager = creator;\n        minimumContribution = minimum;\n    }\n \n    function contribute() public payable {\n        require(msg.value > minimumContribution);\n \n        approvers[msg.sender] = true;\n        approversCount++;\n    }\n \n    function createRequest(string memory description, uint value, address recipient) public restricted {\n        Request storage newRequest = requests.push(); \n        newRequest.description = description;\n        newRequest.value= value;\n        newRequest.recipient= recipient;\n        newRequest.complete= false;\n        newRequest.approvalCount= 0;\n    }\n \n    function approveRequest(uint index) public {\n        Request storage request = requests[index];\n \n        require(approvers[msg.sender]);\n        require(!request.approvals[msg.sender]);\n \n        request.approvals[msg.sender] = true;\n        request.approvalCount++;\n    }\n \n    function finalizeRequest(uint index) public restricted {\n        Request storage request = requests[index];\n \n        require(request.approvalCount > (approversCount / 2));\n        require(!request.complete);\n \n        payable(request.recipient).transfer(request.value);\n        request.complete = true;\n    }\n    \n    function getSummary() public view returns (\n      uint, uint, uint, uint, address\n      ) {\n        return (\n          minimumContribution,\n          address(this).balance,\n          requests.length,\n          approversCount,\n          manager\n        );\n    }\n    \n    function getRequestsCount() public view returns (uint) {\n        return requests.length;\n    }\n}   \n",
  "sourcePath": "/Users/tyrelle/Desktop/ETH-DEV/Sol-Campaign/contracts/Campaign.sol",
  "compiler": {
    "name": "solc",
    "version": "0.8.17+commit.8df45f5f.Emscripten.clang"
  },
  "schemaVersion": "3.4.12",
  "updatedAt": "2023-02-25T11:21:21.695Z",
  "networkType": "ethereum",
  "devdoc": {
    "kind": "dev",
    "methods": {},
    "version": 1
  },
  "userdoc": {
    "kind": "user",
    "methods": {},
    "version": 1
  }
}